S0110000536D617274486F6D652E7372656383
S11300000C942A000C94D60E0C94FD0E0C94240F20
S11300100C9447000C9447000C9447000C94000582
S11300200C9447000C9447000C94720F0C944B0FE3
S11300300C9447000C9447000C9447000C94470020
S11300400C9447000C9447000C9447000C94470010
S11300500C94470011241FBECFE5D8E0DEBFCDBF0E
S113006011E0A0E6B0E0EEE9F2E202C005900D92E4
S1130070A030B107D9F725E0A0E0B1E001C01D929E
S1130080AE35B207E1F70E94E9010C944D110C94CE
S11300900000CF93DF931F92CDB7DEB720E044E694
S11300A050E060E070E080915805909159050E94FD
S11300B0E0060E94C60F898320E044E650E0BE01BA
S11300C06F5F7F4F80915C0590915D050E944E06A5
S11300D020E040E050E060E070E0809158059091AD
S11300E059050E944E0688EE93E00E94D30A0F90B1
S11300F0DF91CF910895CF93DF931F92CDB7DEB7F1
S113010020E048EC50E060E070E080915805909168
S113011059050E94E00620E044E650E0BE016F5F0E
S11301207F4F80915C0590915D050E94E006898176
S11301308237F1F482E690E00E945A0D41E060E0DB
S113014082E00E94530E2FEF33ED80E321503040C4
S11301508040E1F700C0000020E040E050E060E0B3
S113016070E080915805909159050E944E0620C078
S113017060E080E00E946D0D83E790E00E945A0DDC
S113018061E080E00E946D0D82E890E00E945A0DCB
S113019041E061E082E00E94530E9FEF23EB34ECD8
S11301A084E09150204030408040D9F700C00000E6
S11301B080ED97E00E94D30A0F90DF91CF910895CC
S11301C0CF93DF9300D000D0CDB7DEB719821A8267
S11301D01B821C8220E04CE251E060E070E08091E0
S11301E05805909159050E94E006813029F580E078
S11301F00E94CF0DBC0180E090E00E94FE0F20E041
S113020030E04AEF53E40E948D1020E030E040E8F3
S11302105AE30E948D1069837A838B839C8320E048
S113022048EC50E0BE016F5F7F4F80915A0590917A
S11302305B050E944E06DBCF20E040E050E060E02A
S113024070E080915805909159050E944E0688EB04
S11302509BE00E94D30A0F900F900F900F90DF91B4
S1130260CF910895CF92DF92EF92FF92CF93DF93D5
S113027000D000D0CDB7DEB720E040E951E060E027
S113028070E080915805909159050E94E0068130F4
S113029009F090C020E048EC50E0BE016F5F7F4F52
S11302A080915A0590915B050E94E00681E00E94CE
S11302B0210D60E080E00E946D0D83E990E00E94D2
S11302C05A0D69817A818B819C810E94CF0F0E9493
S11302D0750DC980DA80EB80FC8020E030E040EAD4
S11302E051E4C701B6010E94CA0F882364F480E078
S11302F00E94990F61E080E00E946D0D82EA90E017
S11303000E945A0DC7CF20E030E040EA51E4C70113
S1130310B6010E9488108823B4F020E030E040E267
S113032052E4C701B6010E94CA0F882364F48EE127
S11303300E94990F61E080E00E946D0D81EB90E0D6
S11303400E945A0DA7CF20E030E040E252E4C701FA
S1130350B6010E9488108823B4F020E030E048E41D
S113036052E4C701B6010E94CA0F882364F482E3F1
S11303700E94990F61E080E00E946D0D81EC90E095
S11303800E945A0D87CF20E030E048E452E4C701D0
S1130390B6010E94881088230CF47CCF83E60E9467
S11303A0990F61E080E00E946D0D81ED90E00E9464
S11303B05A0D70CF80EA9FE00E94D30A0F900F90ED
S11303C00F900F90DF91CF91FF90EF90DF90CF903F
S11303D00895EF92FF920F9360EF80E00E94C60EA3
S11303E06FEC81E00E94C60E41E060E082E00E9472
S11303F0E00D41E061E082E00E94E00D0E943B0DCF
S11304000E94BF0D0E94BB0FE12CF12C04E020E000
S113041030E040E550E062EE70E089E490E00E9454
S1130420230903E020E030E040E550E068EE70E0AE
S11304308BE790E00E94230902E020E030E040E5F1
S113044050E06EEE70E080EE90E00E94230901E03F
S113045020E030E040E550E064EF70E082E391E0BA
S11304600E94230943E060E081E00E942406909307
S113047059058093580540E061E081E00E9424061C
S113048090935D0580935C0540E064E081E00E9408
S1130490240690935B0580935A050E9477090F9177
S11304A0FF90EF900895E5E0F1E08AE091E0918318
S11304B0808313821282E1E0F1E087EE93E093837C
S11304C0828311821082A9E0B1E014969C938E93EA
S11304D013971296FC93EE93119708950F931F931D
S11304E0CF93DF93EC010E94A10980910001811157
S11304F005C00E94530281E080930001209709F017
S11305002496CE010197863E934008F056C0E091B0
S11305100501F0910601A5E0B1E002C0DF01FC0194
S1130520828193818C179D0720F4808191810097AB
S1130530A9F781E0E130F80709F442C00D911C915C
S113054011970C5F1F4F808191818D939C938281C1
S113055093818C1B9D0B8930910510F1AF014C0FD9
S11305605D1FDA0113969C938E931297D383C283F3
S113057012962D913C91139765E071E001C0BD0185
S1130580EB01A881B98112968D919C9113978217E2
S11305909307A8F3EA01B983A883DB014D935C9325
S11305A0228133818091600090916100821B930BC2
S11305B0909361008093600005C000E010E002C0E9
S11305C000E010E00E94610AC801DF91CF911F9101
S11305D00F9108950F931F93CF93DF93009741F1E9
S11305E0EC018C01045011090E94A109F801428117
S11305F05381A5E0B1E001C0DF01ED91FC911197B9
S11306002281338124173507B8F32497F983E883CB
S11306100D931C938A819B8120916000309161002D
S1130620820F931F90936100809360000E94610A7F
S1130630DF91CF911F910F910895FC01039692834E
S113064081832FEF3FEF34832383968385839087C1
S1130650878310820895FC01118610860895CF9334
S1130660DF939C01FB01DC011196CD91DC91129783
S1130670D383C2838C819D81958384838C819D8166
S1130680DC0113967C936E9312977D836C83318780
S11306902087F90180818F5F8083DF91CF91089556
S11306A0CF93DF93EB01488159814F3F2FEF5207DE
S11306B021F4FC01A781B0850DC0DC01139601C0B3
S11306C0DF011296ED91FC9113972081318142173D
S11306D05307B0F71296ED91FC911397FB83EA83CD
S11306E0D583C483BD83AC831396DC93CE931297D6
S11306F099878887FC0120812F5F2083DF91CF9128
S11307000895CF93DF93FC01A085B185C281D38185
S1130710848195819D838C83C481D58182819381D9
S11307209B838A8311968D919C911297E817F90700
S113073031F48481958112969C938E93119711863E
S113074010868C9181508C93DF91CF9108951BBCBE
S113075089EF8ABD8BE08EBD89B7806189BF08951A
S113076031E1FC013083319722E220833197A3E306
S1130770A0833197608331977083319710823197CA
S113078060E8608331971082319762E0608331972B
S113079063E06083319764E06083319765E0608350
S11307A0319766E06083319767E06083319768E052
S11307B06083319769E06083319760E160833197AA
S11307C03083319732E13083319733E1308331978D
S11307D034E13083319735E13083319736E130832A
S11307E0319737E13083319738E13083319739E1FC
S11307F03083319730E23083319731E2308331975F
S11308002083319723E220833197408331975083AB
S1130810319726E22083319727E22083319728E21B
S11308202083319729E22083319720E32083319775
S113083021E32083869708950E94A703A0914C0585
S1130840B0914D05CD91CDBFDD91DEBFFF91EF910C
S1130850DF91CF91BF91AF919F918F917F916F91D4
S11308605F914F913F912F911F910F91FF90EF90C6
S1130870DF90CF90BF90AF909F908F907F906F90BC
S11308805F904F903F902F901F900F900FBE0F904E
S1130890089581E008950F920FB6F8940F921F9275
S11308A011242F923F924F925F926F927F928F9278
S11308B09F92AF92BF92CF92DF92EF92FF920F93EB
S11308C01F932F933F934F935F936F937F938F93D4
S11308D09F93AF93BF93CF93DF93EF93FF93A09135
S11308E04C05B0914D050DB60D920EB60D920E94B9
S11308F01A0BA0914C05B0914D05CD91CDBFDD9162
S1130900DEBFFF91EF91DF91CF91BF91AF919F91A6
S11309108F917F916F915F914F913F912F911F9193
S11309200F91FF90EF90DF90CF90BF90AF909F908A
S11309308F907F906F905F904F903F902F901F907B
S11309400F900FBE0F9008950F920FB6F8940F9268
S11309501F9211242F923F924F925F926F927F9237
S11309608F929F92AF92BF92CF92DF92EF92FF92BB
S11309700F931F932F933F934F935F936F937F93A3
S11309808F939F93AF93BF93CF93DF93EF93FF9393
S1130990A0914C05B0914D050DB60D920EB60D9279
S11309A00E94A70981110E941A0BA0914C05B091D5
S11309B04D05CD91CDBFDD91DEBFFF91EF91DF916C
S11309C0CF91BF91AF919F918F917F916F915F91E3
S11309D04F913F912F911F910F91FF90EF90DF90D6
S11309E0CF90BF90AF909F908F907F906F905F90CB
S11309F04F903F902F901F900F900FBE0F9008952F
S1130A000E94A40418950FB6F8940F92FC01828DED
S1130A10811102C081E001C080E00F900FBE0895F3
S1130A200FB6F8940F92FC01228D838D281302C017
S1130A3081E001C080E00F900FBE08950F931F93D3
S1130A40CF93DF93EC01042F1A8D4C8D41110CC010
S1130A5088819981892B09F042C08A819B810E94F7
S1130A60720C1B821A8242C0011117C050E08C81A3
S1130A709D810E9444112C8D8C819D81820F911D3A
S1130A809D838C832A813B818217930750F188814F
S1130A9099819D838C8380E029C050E08E819F8161
S1130AA00E9444118C8D90E09195819591092E813D
S1130AB03F81280F391F3F832E8348815981241792
S1130AC0350730F42A813B81820F931F9F838E83E5
S1130AD0023049F4112349F0115080E007C080E04E
S1130AE005C080E003C080E001C080E01F5F1A8F72
S1130AF0DF91CF911F910F910895FC01448D442300
S1130B00A9F050E026813781240F351F37832683CF
S1130B10828193812817390720F0808191819783FE
S1130B208683CB01668177810E94441108951F93C7
S1130B30CF93DF93EC010FB6F8940F921E8D0BC088
S1130B408989882351F0CE0141960E94800B81113E
S1130B500E940C0C115011169CF38FEF8E8F0F9086
S1130B600FBE0FB6F8940F921D8D0BC08885882395
S1130B7051F0CE0108960E94800B81110E940C0C4A
S1130B80115011169CF38FEF8D8F0F900FBEDF91D4
S1130B90CF911F910895CF93DF93EC010FB6F89492
S1130BA00F92E881F9818B8D90E02C8D30E0829F4B
S1130BB0A001839F500D929F500D11244E0F5F1F73
S1130BC05B834A831A8EFD83EC830197289FA001DF
S1130BD0299F500D389F500D1124CF01840F951F6C
S1130BE09F838E838FEF8D8F8E8F61110CC08885CC
S1130BF0882389F0CE0108960E94800B882359F03F
S1130C000E944B0408C0CE0108960E941D03CE0129
S1130C1041960E941D030F900FBE81E0DF91CF919A
S1130C2008950F931F93F801611103C0118300838A
S1130C3002C051834083838F648F61E0CF010E949F
S1130C40CB051F910F910895DF92EF92FF920F93BE
S1130C501F93CF93DF93E82EF62ED42E662321F034
S1130C60869FC001112402C080E090E04F960E944C
S1130C706E02EC01009749F08C012D2DAC01415E10
S1130C805F4F6F2D8E2D0E941106CE01DF91CF9103
S1130C901F910F91FF90EF90DF900895CF92DF9214
S1130CA0EF92FF920F931F93CF93DF9300D000D066
S1130CB01F92CDB7DEB78C017B015D834C83C22EBE
S1130CC0D12C0FB6F8940F92F801928D838D98175A
S1130CD018F0F2E0CF1219C04C2DB701C8010E94E0
S1130CE01E05F8019189992349F0C80141960E9493
S1130CF0800B882331F00E944B0403C081110E94B1
S1130D004B040F900FBE81E04DC08C819D81892BD7
S1130D1021F40F900FBE80E045C0D11006C0CE0173
S1130D2001960E94C80BDD24D3940F900FBE0E943D
S1130D30A1090FB6F8940F92F801858D8F3F09F43D
S1130D40158EF801868D8F3F09F4168E0F900FBE15
S1130D50BE016C5F7F4FCE0101960E94D30B8111BF
S1130D601BC0C8010E941005882381F06C817D811D
S1130D70C80108960E946E0BC8010E9497050E9444
S1130D80610A81119ECF0E944B049BCFC8010E942F
S1130D9097050E94610A95CFC8010E9497050E9499
S1130DA0610A80E00F900F900F900F900F90DF91E9
S1130DB0CF911F910F91FF90EF90DF90CF90089506
S1130DC08F929F92BF92CF92DF92EF92FF920F93F6
S1130DD01F93CF93DF9300D000D01F92CDB7DEB71F
S1130DE08C016B015D834C83B22EE12C0FB6F89419
S1130DF00F92F801F28CFF2091F186809780B60162
S1130E00C8010E947D05B11019C0FA94F801F28E50
S1130E1080819181892B29F40E94B20CF80193837B
S1130E208283F80180858823B1F0C80108960E9466
S1130E30800B882381F00E944B040DC0F801978237
S1130E4086828189882339F0C80141960E94800BEB
S1130E5081110E944B040F900FBE81E061C08C8110
S1130E609D81892B21F40F900FBE80E059C0E110C1
S1130E7006C0CE0101960E94C80BEE24E3940F90A5
S1130E800FBE0E94A1090FB6F8940F92F801858D48
S1130E908F3F09F4158EF801868D8F3F09F4168E65
S1130EA00F900FBEBE016C5F7F4FCE0101960E9472
S1130EB0D30B811129C0C8010E9403058823F1F0D6
S1130EC0F80180819181892B49F40FB6F8940F922F
S1130ED0828193810E94100C0F900FBE6C817D81E2
S1130EE0C80141960E946E0BC8010E9497050E949A
S1130EF0610A81117BCF0E944B0478CFC8010E9404
S1130F0097050E94610A72CFC8010E9497050E944A
S1130F10610AC8010E940305882309F467CF80E0B1
S1130F200F900F900F900F900F90DF91CF911F9122
S1130F300F91FF90EF90DF90CF90BF909F908F9094
S1130F400895E0911D05F0911E058081811107C06F
S1130F508FEF9FEF9093F5048093F4040895E0914C
S1130F601D05F0911E050580F681E02D0680F781B0
S1130F70E02D828193819093F5048093F404089585
S1130F80CF93DF93EC018F89988D0E94EA02CE0102
S1130F900E94EA02DF91CF9108956F927F928F921F
S1130FA09F92AF92BF92CF92DF92EF920F931F93D3
S1130FB0CF93DF93CDB7DEB74C01F5018789908DD0
S1130FC0215031093C01620E731E20E00FC0822FB4
S1130FD090E0FB01E80FF91F3081D501A80FB91F7C
S1130FE059963C938081882319F02F5F283078F339
S1130FF0F50110A2F2E0FE1518F46894EE24E1F86D
S1131000F501E68AE1A212A2C50102960E942B0311
S1131010C5010C960E942B03F501B186A08683E0DE
S113102090E08E19910995878487B38AA28A13A2C6
S113103014A215A216A217A2A801B401C3010E940A
S1131040B003F50191838083C114D10419F0F60132
S1131050B182A082DF91CF911F910F91EF90DF9029
S1131060CF90BF90AF909F908F907F906F90089596
S1131070CF93C0E010C08C2F90E09C01220F331F4F
S1131080220F331F220F331F820F931F8F5C9A4F3F
S11310900E941D03CF5FC33070F388E295E00E9485
S11310A01D038FE195E00E941D0382E195E00E94FB
S11310B01D0389E095E00E941D038FEF94E00E94D8
S11310C01D0388E295E090931E0580931D058FE132
S11310D095E090931C0580931B05CF910895CF93C1
S11310E0DF93EC010FB6F8940F928091FE048F5FAA
S11310F08093FE0480914C0590914D05892B59F401
S1131100D0934D05C0934C058091FE04813099F431
S11311100E94380810C08091FA0481110CC0E0913B
S11311204C05F0914D0596898E89891720F0D0934E
S11311304D05C0934C058091F6048F5F8093F604AF
S11311408E899091FB04981710F48093FB0490E02F
S11311509C01220F331F220F331F220F331F820FD4
S1131160931FBE016E5F7F4F8F5C9A4F0E942F03C7
S11311700F900FBE8091FA04882351F0E0914C0542
S1131180F0914D0596898E89981710F40E944B04AE
S1131190DF91CF910895FF920F931F93CF93DF9325
S11311A0EC01F62E0091FC041091FD0480914C0595
S11311B090914D0502960E948103CF3F8FEFD8078F
S11311C069F4FF2059F060914C0570914D056E5FF4
S11311D07F4F8FEF94E00E942F032FC0C00FD11FC9
S11311E0E0914C05F0914D05D383C283C017D1071C
S11311F068F460914C0570914D0580911B059091A8
S11312001C056E5F7F4F0E94500317C060914C0510
S113121070914D0580911D0590911E056E5F7F4F65
S11312200E9450038091F4049091F504C817D907E3
S113123020F4D093F504C093F404DF91CF911F916F
S11312400F91FF9008952F923F924F925F926F9269
S11312507F928F929F92AF92BF92CF92DF92EF9242
S1131260FF920F931F93CF93DF933C011B015A010D
S11312702901CA010E946E026C01892B71F088E277
S113128090E00E946E02EC01892B19F0D88ECF8A6F
S113129006C0C6010E94EA0202C0C0E0D0E0209766
S11312A091F0950140E050E0812C912C5E016701A2
S11312B0E02E8201B101C3010E94CD07CE010E943C
S11312C06F0881E001C08FEFDF91CF911F910F91E3
S11312D0FF90EF90DF90CF90BF90AF909F908F9052
S11312E07F906F905F904F903F902F900895EF9272
S11312F0FF920F930F2EF2EFEF2EF4E0FF2EF02D5E
S113130000E020E030E040E550E06AEF70E087E183
S11313109BE00E942309813081F4F8948FEF9FEFC2
S11313209093F5048093F40481E08093FA0410927E
S1131330FD041092FC040E941C040F91FF90EF9096
S113134008958091F1048F5F8093F1040895DF92F2
S1131350EF92FF920F931F93CF93DF938091F10449
S1131360811197C0E090FC04F090FD048FEFE81A1F
S1131370F80AF092FD04E092FC04E114F104B9F4DB
S113138080911D0590911E0520911B0530911C052F
S113139030931E0520931D0590931C0580931B0517
S11313A08091F7048F5F8093F7040E94A1078091D6
S11313B0F4049091F504E816F90628F4D12C53C0EE
S11313C0DD24D39401C0D12CE0911D05F0911E05BC
S11313D08081811107C08FEF9FEF9093F504809374
S11313E0F40441C0E0911D05F0911E050580F681CD
S11313F0E02DC681D7818A819B81E816F90628F4FD
S11314009093F5048093F4042EC08E010E5F1F4F59
S1131410C8010E9481038C899D89892B21F0CE010A
S11314200C960E9481038E899091FB04981710F406
S11314308093FB0490E09C01220F331F220F331F83
S1131440220F331F820F931FB8018F5C9A4F0E94A3
S11314502F039E89E0914C05F0914D0586899817DC
S113146008F0AECFB1CFE0914C05F0914D058689DF
S113147090E0FC01EE0FFF1FEE0FFF1FEE0FFF1FAA
S11314808E0F9F1FFC01EF5CFA4F8081823040F485
S113149009C08091F9048F5F8093F904D12C02C0B4
S11314A0DD24D3948091F804882311F0DD24D394AF
S11314B08D2DDF91CF911F910F91FF90EF90DF90D1
S11314C008950F931F93CF93DF930FB6F8940F9261
S11314D08091F10481508093F1048091F104811191
S11314E058C08091FE04811133C056C0E0911705A5
S11314F0F0911805C681D781CE010C960E94810314
S11315008E010E5F1F4FC8010E9481038E89909146
S1131510FB04981710F48093FB0490E09C01220FC5
S1131520331F220F331F220F331F820F931FB80163
S11315308F5C9A4F0E942F039E89E0914C05F09195
S11315404D058689981730F081E08093F80402C035
S1131550C0E0D0E0809112058111C8CFCD2B11F0ED
S11315600E94A107C091F904CC2359F00E94A70955
S1131570882319F081E08093F804C150B9F71092E0
S1131580F9048091F804882331F00E944B0481E02F
S113159003C080E001C080E00F900FBEDF91CF91C7
S11315A01F910F910895CF93DF93EC01892B49F09C
S11315B00E94A10960E0CE010E94CB080E94610A4A
S11315C001C080E0811102C00E944B04DF91CF91E1
S11315D00895CF93DF9324C00E94A109C091090507
S11315E00E94610ACC23E1F00FB6F8940F92E091C7
S11315F00E05F0910F05C681D781CE0102960E9497
S113160081038091FE0481508093FE04809108053B
S11316108150809308050F900FBECE010E94C00731
S1131620809108058111D8CFDF91CF9108950E9450
S1131630E90AFDCF8091F104882321F081E08093B1
S1131640F80408951092F8042091FB0401C021507D
S1131650822F90E0FC01EE0FFF1FEE0FFF1FEE0F35
S1131660FF1FE80FF91FEF5CFA4F3081332379F342
S1131670AC01440F551F440F551F440F551F480F0D
S1131680591FDF010180F281E02D0280F381E02DFA
S11316901296FC93EE9311974C5C5A4FE417F5079E
S11316A029F442815381FD0152834183FC01EE0FF1
S11316B0FF1FEE0FFF1FEE0FFF1F8E0F9F1FFC017A
S11316C0EF5CFA4F0180F281E02D8681978190933F
S11316D04D0580934C052093FB040895CF93DF932D
S11316E0EB0160914C0570914D05645F7F4F0E9442
S11316F0500361E0CE010E94CB08DF91CF910895A1
S11317000F931F93CF93DF93DC011596ED91FC911A
S11317101697C681D7818E01045F1F4FC8010E94AE
S113172081038091F10481111CC00A501109C80180
S11317300E9481038E899091FB04981710F4809382
S1131740FB0490E09C01220F331F220F331F220F52
S1131750331F820F931FB8018F5C9A4F0E942F038F
S113176005C0B80182E195E00E942F039E89E091B3
S11317704C05F0914D058689891720F481E080930A
S1131780F80401C080E0DF91CF911F910F9108957B
S11317902091F704FC0120832091FC043091FD0486
S11317A03283218308950FB6F8940F924091FC047C
S11317B05091FD04DB012D913C912F3FBFEF3B077E
S11317C019F1DC01FC91E091F704FE1739F0119650
S11317D0ED91FC9112974E175F07C0F4DC0111964E
S11317E0ED91FC911297DA01AE1BBF0BA217B30760
S11317F078F4DB01E41BF50B2E0F3F1F2D933C9374
S11318000E94C80B80E005C080E003C081E001C0F5
S113181081E00F900FBE089581E08093F80408954D
S11318200F931F93CF93DF93FC01892B09F455C0C9
S11318302689A0914C05B0914D0556968C91281798
S113184008F04BC084859585992364F0A0914C05DC
S1131850B0914D0556963C9183E090E0831B91092D
S1131860958784878285938530E0A901440F551FAD
S1131870440F551F440F551F240F351F2F5C3A4F3B
S11318808217930719F58F01EF012296CE010E946A
S11318908103E0914C05F0914D058689F801868B12
S11318A09091FB04981710F48093FB0490E09C0142
S11318B0220F331F220F331F220F331F820F931F58
S11318C0BE018F5C9A4F0E942F0307C0A0914C0564
S11318D0B0914D0556968C91868BDF91CF911F91D7
S11318E00F9108950F931F93CF93DF93FC01892BDE
S11318F079F182A1815082A3268991A1291751F1FE
S113190081112AC0EF018F010E5F1F4FC8010E9491
S1131910810389A18E8B23E030E0281B31093D87A8
S11319202C879091FB04981710F48093FB0490E0AB
S11319309C01220F331F220F331F220F331F820FEC
S1131940931FB8018F5C9A4F0E942F0381E005C05A
S113195080E003C080E001C080E0DF91CF911F915F
S11319600F91089580914C0590914D05892B39F084
S1131970E0914C05F0914D0582A18F5F82A3809187
S11319804C0590914D0508950F931F93CF93DF93CA
S113199000D000D0CDB7DEB7082F84E0898385E07E
S11319A08A8386E08B8387E08C8310E014C0402F09
S11319B050E0012E02C0559547950A94E2F7417014
S11319C0E1E0F0E0EC0FFD1FE10FF11D608180E02C
S11319D00E94530E1F5F143050F30F900F900F901E
S11319E00F90DF91CF911F910F91089541E062E034
S11319F081E00E94530E8FE39FE10197F1F700C04D
S1131A00000040E062E081E00E94530E0895CF930D
S1131A10C82F41E060E081E00E94530E40E061E0A5
S1131A2081E00E94530E8C2F82958F700E94C40C0B
S1131A300E94F60C8C2F0E94C40C0E94F60CCF91CD
S1131A400895CF93C82F40E060E081E00E94530ED8
S1131A5040E061E081E00E94530E8C2F82958F70EC
S1131A600E94C40C0E94F60C8C2F0E94C40C0E948D
S1131A70F60CCF9108952FEF83EF91E02150804031
S1131A809040E1F700C0000082E00E94C40C0E9474
S1131A90F60C82E00E94C40C0E94F60C88E00E94BE
S1131AA0C40C0E94F60C8CE00E94210D81E00E947F
S1131AB0210D08950F931F93CF938C01C0E003C0B1
S1131AC00E94070DCF5FF801EC0FF11D8081811199
S1131AD0F7CFCF911F910F91089590E4699F800DE6
S1131AE0112480680E94210D08951F93CF93DF93E2
S1131AF0CDB7DEB72A970FB6F894DEBF0FBECDBFC1
S1131B006115710581059105D1F480E30E94070DEB
S1131B102CC02AE030E040E050E00E942211E1E0D5
S1131B20F0E0EC0FFD1FE10FF11D17FDFA95605D6C
S1131B306083622F732F842F952F1F5F01C010E0E5
S1131B40611571058105910521F711500CC0E1E083
S1131B50F0E0EC0FFD1FE10FF11D17FDFA958081F8
S1131B600E94070D1150112394F72A960FB6F8948A
S1131B70DEBF0FBECDBFDF91CF911F91089587B116
S1131B808F7787B987B1806487B986B1887F86B932
S1131B9086B1876086B986B1806886B9089597B1A1
S1131BA0907E97B997B1892B87B986B1806486B93D
S1131BB0349BFECF86B1806186B984B195B1089516
S1131BC0423008F06FC04130A1F5813089F028F02F
S1131BD08230C9F0833011F108952AB381E090E096
S1131BE002C0880F991F6A95E2F7822B8ABB089579
S1131BF027B381E090E002C0880F991F6A95E2F74D
S1131C00822B87BB089524B381E090E002C0880F43
S1131C10991F6A95E2F7822B84BB089521B381E072
S1131C2090E002C0880F991F6A95E2F7822B81BB6E
S1131C300895411137C0813091F028F08230D9F0F5
S1131C40833029F108952AB381E090E002C0880F1F
S1131C50991F6A95E2F7809582238ABB089527B37A
S1131C6081E090E002C0880F991F6A95E2F78095A1
S1131C70822387BB089524B381E090E002C0880FDB
S1131C80991F6A95E2F78095822384BB089521B356
S1131C9081E090E002C0880F991F6A95E2F7809571
S1131CA0822381BB0895423008F06FC04130A1F512
S1131CB0813089F028F08230C9F0833011F1089521
S1131CC02BB381E090E002C0880F991F6A95E2F778
S1131CD0822B8BBB089528B381E090E002C0880F6B
S1131CE0991F6A95E2F7822B88BB089525B381E09A
S1131CF090E002C0880F991F6A95E2F7822B85BB9A
S1131D00089522B381E090E002C0880F991F6A957C
S1131D10E2F7822B82BB0895411137C0813091F0E4
S1131D2028F08230D9F0833029F108952BB381E073
S1131D3090E002C0880F991F6A95E2F7809582238C
S1131D408BBB089528B381E090E002C0880F991FEF
S1131D506A95E2F78095822388BB089525B381E0D4
S1131D6090E002C0880F991F6A95E2F7809582235C
S1131D7085BB089522B381E090E002C0880F991FCB
S1131D806A95E2F78095822382BB0895813041F001
S1131D9028F0823039F0833039F008956ABB089511
S1131DA067BB089564BB089561BB08951F920F92A9
S1131DB00FB60F9211242F933F934F935F936F931A
S1131DC07F938F939F93AF93BF93EF93FF93E09190
S1131DD04E05F0914F050995FF91EF91BF91AF9199
S1131DE09F918F917F916F915F914F913F912F912F
S1131DF00F900FBE0F901F9018951F920F920FB661
S1131E000F9211242F933F934F935F936F937F937C
S1131E108F939F93AF93BF93EF93FF93E0915005FC
S1131E20F09151050995FF91EF91BF91AF919F9169
S1131E308F917F916F915F914F913F912F910F906F
S1131E400FBE0F901F9018951F920F920FB60F920E
S1131E5011242F933F934F935F936F937F938F93AB
S1131E609F93AF93BF93EF93FF93E0915205F0914B
S1131E7053050995FF91EF91BF91AF919F918F9178
S1131E807F916F915F914F913F912F910F900FBE72
S1131E900F901F9018951F920F920FB60F92112456
S1131EA02F933F934F935F936F937F938F939F935E
S1131EB0AF93BF93EF93FF93E0915405F0915505D1
S1131EC00995FF91EF91BF91AF919F918F917F9170
S1131ED06F915F914F913F912F910F900FBE0F9093
S1131EE01F9018951F920F920FB60F9211242F93E3
S1131EF03F934F935F936F937F938F939F93AF938E
S1131F00BF93EF93FF93E0915605F0915705099520
S1131F10FF91EF91BF91AF919F918F917F916F91BD
S1131F205F914F913F912F910F900FBE0F901F9093
S1131F30189593B7986093BF93B7906493BF93B782
S1131F40906293BF93B79F7E93BF93B7987F93BFDD
S1131F5093B7936093BF682F70E080E090E00E9495
S1131F6000102AE037ED43E250E40E948D100E94F5
S1131F70CF0F6CBF089586E880BD87E689B98AB122
S1131F8088608AB98AB180618AB908955F9BFECF5F
S1131F908CB108950E943B1008F481E008950E94DA
S1131FA0671088F09F5798F0B92F9927B751B0F070
S1131FB0E1F0660F771F881F991F1AF0BA95C9F7C9
S1131FC014C0B13091F00E948110B1E008950C94D6
S1131FD08110672F782F8827B85F39F0B93FCCF389
S1131FE0869577956795B395D9F73EF49095809546
S1131FF0709561957F4F8F4F9F4F0895E89409C066
S113200097FB3EF490958095709561957F4F8F4F27
S11320109F4F9923A9F0F92F96E9BB279395F6953D
S1132020879577956795B795F111F8CFFAF4BB0FBB
S113203011F460FF1BC06F5F7F4F8F4F9F4F16C01F
S1132040882311F096E911C0772321F09EE8872FA9
S1132050762F05C0662371F096E8862F70E060E065
S11320602AF09A95660F771F881FDAF7880F9695DE
S1132070879597F90895990F0008550FAA0BE0E882
S1132080FEEF16161706E807F907C0F01216130636
S1132090E407F50798F0621B730B840B950B39F476
S11320A00A2661F0232B242B252B21F408950A26DC
S11320B009F4A140A6958FEF811D811D089557FD58
S11320C09058440F551F59F05F3F71F04795880FA2
S11320D097FB991F61F09F3F79F087950895121639
S11320E013061406551FF2CF4695F1DF08C01616E5
S11320F017061806991FF1CF869571056105089496
S11321000895E894BB2766277727CB0197F90895AC
S11321100E943B1008F48FEF08950E94A0100C94C5
S113212011110E94031138F00E940A1120F0952326
S113213011F00C94FA100C94001111240C948210D8
S11321400E945F1070F3959FC1F3950F50E0551FE7
S1132150629FF001729FBB27F00DB11D639FAA27F8
S1132160F00DB11DAA1F649F6627B00DA11D661F47
S1132170829F2227B00DA11D621F739FB00DA11D68
S1132180621F839FA00D611D221F749F3327A00D22
S1132190611D231F849F600D211D822F762F6A2FBE
S11321A011249F5750409AF0F1F088234AF0EE0F23
S11321B0FF1FBB1F661F771F881F91505040A9F750
S11321C09E3F510580F00C94FA100C9482105F3FEE
S11321D0E4F3983ED4F3869577956795B795F7958C
S11321E0E7959F5FC1F7FE2B880F911D9695879504
S11321F097F9089597F99F6780E870E060E0089583
S11322009FEF80EC089500240A941616170618060A
S11322100906089500240A941216130614060506E6
S11322200895092E0394000C11F4882352F0BB0F77
S113223040F4BF2B11F460FF04C06F5F7F4F8F4FDA
S11322409F4F0895A1E21A2EAA1BBB1BFD010DC0CE
S1132250AA1FBB1FEE1FFF1FA217B307E407F50752
S113226020F0A21BB30BE40BF50B661F771F881F2E
S1132270991F1A9469F760957095809590959B01C4
S1132280AC01BD01CF010895FB01DC0102C0019046
S11122900D9241505040D8F70895F894FFCFB6
S113229EE703436F72726563742050617373776FD3
S11322AE72640057726F6E672050617373776F722A
S11322BE640053797374656D20697320436C6F7376
S11322CE65640054656D7065726174757265203D48
S11322DE200046616E205370656564203D203025D4
S11322EE0046616E205370656564203D20333025B1
S11322FE0046616E205370656564203D203530259F
S113230E0046616E205370656564203D2031303087
S113231E25007461736B31007461736B32007461E8
S113232E736B33007461736B340049444C45000085
S9030000FC
